{
  "_format": "hh-sol-artifact-1",
  "contractName": "Sybil",
  "sourceName": "contracts/Sybil.sol",
  "abi": [
    {
      "inputs": [],
      "stateMutability": "nonpayable",
      "type": "constructor"
    },
    {
      "anonymous": false,
      "inputs": [
        {
          "indexed": false,
          "internalType": "address",
          "name": "newOwner",
          "type": "address"
        }
      ],
      "name": "ChangeOwner",
      "type": "event"
    },
    {
      "anonymous": false,
      "inputs": [
        {
          "indexed": false,
          "internalType": "address",
          "name": "subjectId",
          "type": "address"
        },
        {
          "indexed": false,
          "internalType": "bytes20",
          "name": "sybilId",
          "type": "bytes20"
        }
      ],
      "name": "SybilAdd",
      "type": "event"
    },
    {
      "inputs": [
        {
          "internalType": "address",
          "name": "_address",
          "type": "address"
        }
      ],
      "name": "getSybilId",
      "outputs": [
        {
          "internalType": "bytes20",
          "name": "",
          "type": "bytes20"
        }
      ],
      "stateMutability": "view",
      "type": "function"
    },
    {
      "inputs": [],
      "name": "owner",
      "outputs": [
        {
          "internalType": "address",
          "name": "",
          "type": "address"
        }
      ],
      "stateMutability": "view",
      "type": "function"
    },
    {
      "inputs": [
        {
          "internalType": "address",
          "name": "_newOwner",
          "type": "address"
        }
      ],
      "name": "setOwner",
      "outputs": [],
      "stateMutability": "nonpayable",
      "type": "function"
    },
    {
      "inputs": [
        {
          "internalType": "bytes20",
          "name": "_sybilId",
          "type": "bytes20"
        },
        {
          "internalType": "bytes",
          "name": "signature",
          "type": "bytes"
        }
      ],
      "name": "setSybilId",
      "outputs": [],
      "stateMutability": "nonpayable",
      "type": "function"
    }
  ],
  "bytecode": "0x608060405234801561001057600080fd5b50336000806101000a81548173ffffffffffffffffffffffffffffffffffffffff021916908373ffffffffffffffffffffffffffffffffffffffff160217905550610a1c806100606000396000f3fe608060405234801561001057600080fd5b506004361061004c5760003560e01c806313af403514610051578063271977541461006d5780638da5cb5b14610089578063e6119799146100a7575b600080fd5b61006b600480360381019061006691906105f8565b6100d7565b005b610087600480360381019061008291906106e2565b6101df565b005b6100916103c6565b60405161009e9190610751565b60405180910390f35b6100c160048036038101906100bc91906105f8565b6103ea565b6040516100ce919061077b565b60405180910390f35b3373ffffffffffffffffffffffffffffffffffffffff1660008054906101000a900473ffffffffffffffffffffffffffffffffffffffff1673ffffffffffffffffffffffffffffffffffffffff1614610165576040517f08c379a000000000000000000000000000000000000000000000000000000000815260040161015c906107f3565b60405180910390fd5b806000806101000a81548173ffffffffffffffffffffffffffffffffffffffff021916908373ffffffffffffffffffffffffffffffffffffffff1602179055507ff285329298fd841af46eb83bbe90d1ebe2951c975a65b19a02f965f842ee69c5816040516101d49190610751565b60405180910390a150565b60008061025833866040516020016101f892919061087c565b6040516020818303038152906040528051906020012085858080601f016020809104026020016040519081016040528093929190818152602001838380828437600081840152601f19601f82011690508083019250505050505050610440565b509150915060006003811115610271576102706108a8565b5b816003811115610284576102836108a8565b5b1480156102dc575060008054906101000a900473ffffffffffffffffffffffffffffffffffffffff1673ffffffffffffffffffffffffffffffffffffffff168273ffffffffffffffffffffffffffffffffffffffff16145b61031b576040517f08c379a000000000000000000000000000000000000000000000000000000000815260040161031290610923565b60405180910390fd5b84600160003373ffffffffffffffffffffffffffffffffffffffff1673ffffffffffffffffffffffffffffffffffffffff16815260200190815260200160002060006101000a81548173ffffffffffffffffffffffffffffffffffffffff021916908360601c02179055507fb3951d214062491adccf824c6133b6f2851e7856786868e8d9538b729a65adad33866040516103b7929190610943565b60405180910390a15050505050565b60008054906101000a900473ffffffffffffffffffffffffffffffffffffffff1681565b6000600160008373ffffffffffffffffffffffffffffffffffffffff1673ffffffffffffffffffffffffffffffffffffffff16815260200190815260200160002060009054906101000a900460601b9050919050565b600080600060418451036104855760008060006020870151925060408701519150606087015160001a90506104778882858561049c565b955095509550505050610495565b60006002855160001b9250925092505b9250925092565b60008060007f7fffffffffffffffffffffffffffffff5d576e7357a4501ddfe92f46681b20a08460001c11156104dc576000600385925092509250610586565b60006001888888886040516000815260200160405260405161050194939291906109a1565b6020604051602081039080840390855afa158015610523573d6000803e3d6000fd5b505050602060405103519050600073ffffffffffffffffffffffffffffffffffffffff168173ffffffffffffffffffffffffffffffffffffffff160361057757600060016000801b93509350935050610586565b8060008060001b935093509350505b9450945094915050565b600080fd5b600080fd5b600073ffffffffffffffffffffffffffffffffffffffff82169050919050565b60006105c58261059a565b9050919050565b6105d5816105ba565b81146105e057600080fd5b50565b6000813590506105f2816105cc565b92915050565b60006020828403121561060e5761060d610590565b5b600061061c848285016105e3565b91505092915050565b60007fffffffffffffffffffffffffffffffffffffffff00000000000000000000000082169050919050565b61065a81610625565b811461066557600080fd5b50565b60008135905061067781610651565b92915050565b600080fd5b600080fd5b600080fd5b60008083601f8401126106a2576106a161067d565b5b8235905067ffffffffffffffff8111156106bf576106be610682565b5b6020830191508360018202830111156106db576106da610687565b5b9250929050565b6000806000604084860312156106fb576106fa610590565b5b600061070986828701610668565b935050602084013567ffffffffffffffff81111561072a57610729610595565b5b6107368682870161068c565b92509250509250925092565b61074b816105ba565b82525050565b60006020820190506107666000830184610742565b92915050565b61077581610625565b82525050565b6000602082019050610790600083018461076c565b92915050565b600082825260208201905092915050565b7f6f6e6c79206f776e657200000000000000000000000000000000000000000000600082015250565b60006107dd600a83610796565b91506107e8826107a7565b602082019050919050565b6000602082019050818103600083015261080c816107d0565b9050919050565b60008160601b9050919050565b600061082b82610813565b9050919050565b600061083d82610820565b9050919050565b610855610850826105ba565b610832565b82525050565b6000819050919050565b61087661087182610625565b61085b565b82525050565b60006108888285610844565b6014820191506108988284610865565b6014820191508190509392505050565b7f4e487b7100000000000000000000000000000000000000000000000000000000600052602160045260246000fd5b7f696e76616c6964207369676e6174757265000000000000000000000000000000600082015250565b600061090d601183610796565b9150610918826108d7565b602082019050919050565b6000602082019050818103600083015261093c81610900565b9050919050565b60006040820190506109586000830185610742565b610965602083018461076c565b9392505050565b6000819050919050565b61097f8161096c565b82525050565b600060ff82169050919050565b61099b81610985565b82525050565b60006080820190506109b66000830187610976565b6109c36020830186610992565b6109d06040830185610976565b6109dd6060830184610976565b9594505050505056fea26469706673582212207097d8c5fefc1a547b4493448ced4d7f96b7388a57ef078215bc595f8e4f7e7b64736f6c63430008180033",
  "linkReferences": {},
  "deployedLinkReferences": {}
}